MPASM

CCS PCM C Compiler, Version 4.104, 5967               20-Jul-15 18:38

               Filename: Z:\home\johnny\Dropbox\proyectos\chinchorro\pic c\juguete.lst

               ROM used: 411 words (20%)
                         Largest free fragment is 1637
               RAM used: 6 (3%) at main() level
                         11 (5%) worst case
               Stack:    2 locations

0000 3001       00001 MOVLW  01
0001 008A       00002 MOVWF  0A
0002 2975       00003 GOTO   175
0003 0000       00004 NOP
                00005 .................... // Por ahora para compilar se debe hacer en linux: 
                00006 .................... // wine Ccsc.exe archivo.c 
                00007 .................... //para subir el archivo.hex es necesario hacerlo desde dónde se 
                00008 .................... //la aplicación pk2cmd con el siguiente comando: 
                00009 .................... //pk2cmd -p -m -farchivo.hex 
                00010 .................... // podría en primer lugar probar si está conectado el pikit clone 
                00011 .................... //pk2cmd -?v 
                00012 .................... //Cristal oscilador interno INTRC_IO 
                00013 .................... //Crsital oscilador externo 
                00014 .................... //Sin master clear NOMCLR 
                00015 ....................  
                00016 .................... #include <16f628a.h> 
                00017 .................... //////// Standard Header file for the PIC16F628A device //////////////// 
                00018 .................... #device PIC16F628A 
                00237 .................... #list 
                00238 ....................  
                00239 .................... #fuses XT, NOWDT, NOPROTECT, NOLVP, PUT, BROWNOUT, NOMCLR 
                00240 .................... #use delay(clock=4000000) 
                00241 .................... #use standard_io(a) 
                00242 .................... #use standard_io(b) 
                00243 ....................  
                00244 .................... #byte PORTB = 0x06 
                00245 .................... #define RETARDO 8000 
                00246 .................... #define umbral	30 
                00247 .................... #define RETARDO_SHORT	4000 
                00248 ....................  
                00249 .................... void delay(long time); 
                00250 .................... int luces(char offset); 
                00251 ....................  
                00252 .................... void main() { 
0175 0184       00253 CLRF   04
0176 1383       00254 BCF    03.7
0177 301F       00255 MOVLW  1F
0178 0583       00256 ANDWF  03,F
0179 3007       00257 MOVLW  07
017A 009F       00258 MOVWF  1F
                00259 .................... 	set_tris_a(0xff); 
017B 30FF       00260 MOVLW  FF
017C 0065       00261 TRIS   5
                00262 .................... 	set_tris_b(0x00); 
017D 3000       00263 MOVLW  00
017E 0066       00264 TRIS   6
                00265 .................... 	while(TRUE){ 
                00266 .................... 		if(input(PIN_A0) == 0){       //motor y luces on 
017F 1683       00267 BSF    03.5
0180 1405       00268 BSF    05.0
0181 1283       00269 BCF    03.5
0182 1805       00270 BTFSC  05.0
0183 2988       00271 GOTO   188
                00272 ....................             luces(8); 
0184 3008       00273 MOVLW  08
0185 00A1       00274 MOVWF  21
0186 2055       00275 CALL   055
                00276 ....................         } 
                00277 ....................         else if(input(PIN_A1) == 0){  //Motor on 
0187 2999       00278 GOTO   199
0188 1683       00279 BSF    03.5
0189 1485       00280 BSF    05.1
018A 1283       00281 BCF    03.5
018B 1885       00282 BTFSC  05.1
018C 2990       00283 GOTO   190
                00284 ....................             PORTB = 8;            
018D 3008       00285 MOVLW  08
018E 0086       00286 MOVWF  06
                00287 ....................         } 
                00288 ....................         else if(input(PIN_A2) == 0){  //Luces on 
018F 2999       00289 GOTO   199
0190 1683       00290 BSF    03.5
0191 1505       00291 BSF    05.2
0192 1283       00292 BCF    03.5
0193 1905       00293 BTFSC  05.2
0194 2998       00294 GOTO   198
                00295 ....................             luces(0); 
0195 01A1       00296 CLRF   21
0196 2055       00297 CALL   055
                00298 ....................         } 
                00299 ....................         else{ 
0197 2999       00300 GOTO   199
                00301 ....................             PORTB = 0;      //all off 
0198 0186       00302 CLRF   06
                00303 ....................         } 
                00304 .................... 	} 
0199 297F       00305 GOTO   17F
                00306 ....................  
                00307 .................... } 
                00308 ....................  
                00309 .................... int luces(char offset){ 
                00310 ....................     int j; 
019A 0063       00311 SLEEP
                00312 ....................     while(1){ 
                00313 ....................         for(j = 0; j < umbral; j++){ 
0055 01A2       00314 CLRF   22
0056 0822       00315 MOVF   22,W
0057 3C1D       00316 SUBLW  1D
0058 1C03       00317 BTFSS  03.0
0059 2881       00318 GOTO   081
                00319 ....................             PORTB = offset + 1; 
005A 3001       00320 MOVLW  01
005B 0721       00321 ADDWF  21,W
005C 0086       00322 MOVWF  06
                00323 ....................             delay(RETARDO); 
005D 301F       00324 MOVLW  1F
005E 00A4       00325 MOVWF  24
005F 3040       00326 MOVLW  40
0060 00A3       00327 MOVWF  23
0061 2004       00328 CALL   004
                00329 ....................             PORTB = offset + 2; 
0062 3002       00330 MOVLW  02
0063 0721       00331 ADDWF  21,W
0064 0086       00332 MOVWF  06
                00333 ....................             delay(RETARDO); 
0065 301F       00334 MOVLW  1F
0066 00A4       00335 MOVWF  24
0067 3040       00336 MOVLW  40
0068 00A3       00337 MOVWF  23
0069 2004       00338 CALL   004
                00339 ....................             PORTB = offset + 4; 
006A 3004       00340 MOVLW  04
006B 0721       00341 ADDWF  21,W
006C 0086       00342 MOVWF  06
                00343 ....................             delay(RETARDO); 
006D 301F       00344 MOVLW  1F
006E 00A4       00345 MOVWF  24
006F 3040       00346 MOVLW  40
0070 00A3       00347 MOVWF  23
0071 2004       00348 CALL   004
                00349 ....................             if( !(input(PIN_A0) == 0 || input(PIN_A2) == 0)){ 
0072 1683       00350 BSF    03.5
0073 1405       00351 BSF    05.0
0074 1283       00352 BCF    03.5
0075 1C05       00353 BTFSS  05.0
0076 287F       00354 GOTO   07F
0077 1683       00355 BSF    03.5
0078 1505       00356 BSF    05.2
0079 1283       00357 BCF    03.5
007A 1D05       00358 BTFSS  05.2
007B 287F       00359 GOTO   07F
                00360 ....................                 return 1; 
007C 3001       00361 MOVLW  01
007D 00F8       00362 MOVWF  78
007E 2974       00363 GOTO   174
                00364 ....................             } 
                00365 ....................         } 
007F 0AA2       00366 INCF   22,F
0080 2856       00367 GOTO   056
                00368 ....................         for(j = 0; j < umbral; j++){ 
0081 01A2       00369 CLRF   22
0082 0822       00370 MOVF   22,W
0083 3C1D       00371 SUBLW  1D
0084 1C03       00372 BTFSS  03.0
0085 28AD       00373 GOTO   0AD
                00374 ....................             PORTB = offset + 4; 
0086 3004       00375 MOVLW  04
0087 0721       00376 ADDWF  21,W
0088 0086       00377 MOVWF  06
                00378 ....................             delay(RETARDO); 
0089 301F       00379 MOVLW  1F
008A 00A4       00380 MOVWF  24
008B 3040       00381 MOVLW  40
008C 00A3       00382 MOVWF  23
008D 2004       00383 CALL   004
                00384 ....................             PORTB = offset + 2; 
008E 3002       00385 MOVLW  02
008F 0721       00386 ADDWF  21,W
0090 0086       00387 MOVWF  06
                00388 ....................             delay(RETARDO); 
0091 301F       00389 MOVLW  1F
0092 00A4       00390 MOVWF  24
0093 3040       00391 MOVLW  40
0094 00A3       00392 MOVWF  23
0095 2004       00393 CALL   004
                00394 ....................             PORTB = offset + 1; 
0096 3001       00395 MOVLW  01
0097 0721       00396 ADDWF  21,W
0098 0086       00397 MOVWF  06
                00398 ....................             delay(RETARDO); 
0099 301F       00399 MOVLW  1F
009A 00A4       00400 MOVWF  24
009B 3040       00401 MOVLW  40
009C 00A3       00402 MOVWF  23
009D 2004       00403 CALL   004
                00404 ....................             if( !(input(PIN_A0) == 0 || input(PIN_A2) == 0)){ 
009E 1683       00405 BSF    03.5
009F 1405       00406 BSF    05.0
00A0 1283       00407 BCF    03.5
00A1 1C05       00408 BTFSS  05.0
00A2 28AB       00409 GOTO   0AB
00A3 1683       00410 BSF    03.5
00A4 1505       00411 BSF    05.2
00A5 1283       00412 BCF    03.5
00A6 1D05       00413 BTFSS  05.2
00A7 28AB       00414 GOTO   0AB
                00415 ....................                 return 1; 
00A8 3001       00416 MOVLW  01
00A9 00F8       00417 MOVWF  78
00AA 2974       00418 GOTO   174
                00419 ....................             } 
                00420 ....................         } 
00AB 0AA2       00421 INCF   22,F
00AC 2882       00422 GOTO   082
                00423 ....................         for(j = 0; j < umbral; j++){ 
00AD 01A2       00424 CLRF   22
00AE 0822       00425 MOVF   22,W
00AF 3C1D       00426 SUBLW  1D
00B0 1C03       00427 BTFSS  03.0
00B1 28D0       00428 GOTO   0D0
                00429 ....................             PORTB = offset + 0; 
00B2 0821       00430 MOVF   21,W
00B3 0086       00431 MOVWF  06
                00432 ....................             delay(RETARDO); 
00B4 301F       00433 MOVLW  1F
00B5 00A4       00434 MOVWF  24
00B6 3040       00435 MOVLW  40
00B7 00A3       00436 MOVWF  23
00B8 2004       00437 CALL   004
                00438 ....................             PORTB = offset + 7; 
00B9 3007       00439 MOVLW  07
00BA 0721       00440 ADDWF  21,W
00BB 0086       00441 MOVWF  06
                00442 ....................             delay(RETARDO); 
00BC 301F       00443 MOVLW  1F
00BD 00A4       00444 MOVWF  24
00BE 3040       00445 MOVLW  40
00BF 00A3       00446 MOVWF  23
00C0 2004       00447 CALL   004
                00448 ....................             if( !(input(PIN_A0) == 0 || input(PIN_A2) == 0)){ 
00C1 1683       00449 BSF    03.5
00C2 1405       00450 BSF    05.0
00C3 1283       00451 BCF    03.5
00C4 1C05       00452 BTFSS  05.0
00C5 28CE       00453 GOTO   0CE
00C6 1683       00454 BSF    03.5
00C7 1505       00455 BSF    05.2
00C8 1283       00456 BCF    03.5
00C9 1D05       00457 BTFSS  05.2
00CA 28CE       00458 GOTO   0CE
                00459 ....................                 return 1; 
00CB 3001       00460 MOVLW  01
00CC 00F8       00461 MOVWF  78
00CD 2974       00462 GOTO   174
                00463 ....................             } 
                00464 ....................         } 
00CE 0AA2       00465 INCF   22,F
00CF 28AE       00466 GOTO   0AE
                00467 ....................         for(j = 0; j < umbral; j++){ 
00D0 01A2       00468 CLRF   22
00D1 0822       00469 MOVF   22,W
00D2 3C1D       00470 SUBLW  1D
00D3 1C03       00471 BTFSS  03.0
00D4 28FC       00472 GOTO   0FC
                00473 ....................             PORTB = offset + 3; 
00D5 3003       00474 MOVLW  03
00D6 0721       00475 ADDWF  21,W
00D7 0086       00476 MOVWF  06
                00477 ....................             delay(RETARDO); 
00D8 301F       00478 MOVLW  1F
00D9 00A4       00479 MOVWF  24
00DA 3040       00480 MOVLW  40
00DB 00A3       00481 MOVWF  23
00DC 2004       00482 CALL   004
                00483 ....................             PORTB = offset + 6; 
00DD 3006       00484 MOVLW  06
00DE 0721       00485 ADDWF  21,W
00DF 0086       00486 MOVWF  06
                00487 ....................             delay(RETARDO); 
00E0 301F       00488 MOVLW  1F
00E1 00A4       00489 MOVWF  24
00E2 3040       00490 MOVLW  40
00E3 00A3       00491 MOVWF  23
00E4 2004       00492 CALL   004
                00493 ....................             PORTB = offset + 5; 
00E5 3005       00494 MOVLW  05
00E6 0721       00495 ADDWF  21,W
00E7 0086       00496 MOVWF  06
                00497 ....................             delay(RETARDO); 
00E8 301F       00498 MOVLW  1F
00E9 00A4       00499 MOVWF  24
00EA 3040       00500 MOVLW  40
00EB 00A3       00501 MOVWF  23
00EC 2004       00502 CALL   004
                00503 ....................             if( !(input(PIN_A0) == 0 || input(PIN_A2) == 0)){ 
00ED 1683       00504 BSF    03.5
00EE 1405       00505 BSF    05.0
00EF 1283       00506 BCF    03.5
00F0 1C05       00507 BTFSS  05.0
00F1 28FA       00508 GOTO   0FA
00F2 1683       00509 BSF    03.5
00F3 1505       00510 BSF    05.2
00F4 1283       00511 BCF    03.5
00F5 1D05       00512 BTFSS  05.2
00F6 28FA       00513 GOTO   0FA
                00514 ....................                 return 1; 
00F7 3001       00515 MOVLW  01
00F8 00F8       00516 MOVWF  78
00F9 2974       00517 GOTO   174
                00518 ....................             } 
                00519 ....................         } 
00FA 0AA2       00520 INCF   22,F
00FB 28D1       00521 GOTO   0D1
                00522 ....................         for(j = 0; j < umbral; j++){ 
00FC 01A2       00523 CLRF   22
00FD 0822       00524 MOVF   22,W
00FE 3C1D       00525 SUBLW  1D
00FF 1C03       00526 BTFSS  03.0
0100 2973       00527 GOTO   173
                00528 ....................             PORTB = offset + 1; 
0101 3001       00529 MOVLW  01
0102 0721       00530 ADDWF  21,W
0103 0086       00531 MOVWF  06
                00532 ....................             delay(RETARDO_SHORT); 
0104 300F       00533 MOVLW  0F
0105 00A4       00534 MOVWF  24
0106 30A0       00535 MOVLW  A0
0107 00A3       00536 MOVWF  23
0108 2004       00537 CALL   004
                00538 ....................             PORTB = offset + 4; 
0109 3004       00539 MOVLW  04
010A 0721       00540 ADDWF  21,W
010B 0086       00541 MOVWF  06
                00542 ....................             delay(RETARDO_SHORT); 
010C 300F       00543 MOVLW  0F
010D 00A4       00544 MOVWF  24
010E 30A0       00545 MOVLW  A0
010F 00A3       00546 MOVWF  23
0110 2004       00547 CALL   004
                00548 ....................             PORTB = offset + 2; 
0111 3002       00549 MOVLW  02
0112 0721       00550 ADDWF  21,W
0113 0086       00551 MOVWF  06
                00552 ....................             delay(RETARDO_SHORT); 
0114 300F       00553 MOVLW  0F
0115 00A4       00554 MOVWF  24
0116 30A0       00555 MOVLW  A0
0117 00A3       00556 MOVWF  23
0118 2004       00557 CALL   004
                00558 ....................             PORTB = offset + 7; 
0119 3007       00559 MOVLW  07
011A 0721       00560 ADDWF  21,W
011B 0086       00561 MOVWF  06
                00562 ....................             delay(RETARDO_SHORT); 
011C 300F       00563 MOVLW  0F
011D 00A4       00564 MOVWF  24
011E 30A0       00565 MOVLW  A0
011F 00A3       00566 MOVWF  23
0120 2004       00567 CALL   004
                00568 ....................             PORTB = offset + 0; 
0121 0821       00569 MOVF   21,W
0122 0086       00570 MOVWF  06
                00571 ....................             delay(RETARDO_SHORT); 
0123 300F       00572 MOVLW  0F
0124 00A4       00573 MOVWF  24
0125 30A0       00574 MOVLW  A0
0126 00A3       00575 MOVWF  23
0127 2004       00576 CALL   004
                00577 ....................             PORTB = offset + 7; 
0128 3007       00578 MOVLW  07
0129 0721       00579 ADDWF  21,W
012A 0086       00580 MOVWF  06
                00581 ....................             delay(RETARDO_SHORT); 
012B 300F       00582 MOVLW  0F
012C 00A4       00583 MOVWF  24
012D 30A0       00584 MOVLW  A0
012E 00A3       00585 MOVWF  23
012F 2004       00586 CALL   004
                00587 ....................             PORTB = offset + 0; 
0130 0821       00588 MOVF   21,W
0131 0086       00589 MOVWF  06
                00590 ....................             delay(RETARDO_SHORT); 
0132 300F       00591 MOVLW  0F
0133 00A4       00592 MOVWF  24
0134 30A0       00593 MOVLW  A0
0135 00A3       00594 MOVWF  23
0136 2004       00595 CALL   004
                00596 ....................             PORTB = offset + 6; 
0137 3006       00597 MOVLW  06
0138 0721       00598 ADDWF  21,W
0139 0086       00599 MOVWF  06
                00600 ....................             delay(RETARDO_SHORT); 
013A 300F       00601 MOVLW  0F
013B 00A4       00602 MOVWF  24
013C 30A0       00603 MOVLW  A0
013D 00A3       00604 MOVWF  23
013E 2004       00605 CALL   004
                00606 ....................             PORTB = offset + 0; 
013F 0821       00607 MOVF   21,W
0140 0086       00608 MOVWF  06
                00609 ....................             delay(RETARDO_SHORT); 
0141 300F       00610 MOVLW  0F
0142 00A4       00611 MOVWF  24
0143 30A0       00612 MOVLW  A0
0144 00A3       00613 MOVWF  23
0145 2004       00614 CALL   004
                00615 ....................             PORTB = offset + 3; 
0146 3003       00616 MOVLW  03
0147 0721       00617 ADDWF  21,W
0148 0086       00618 MOVWF  06
                00619 ....................             delay(RETARDO_SHORT); 
0149 300F       00620 MOVLW  0F
014A 00A4       00621 MOVWF  24
014B 30A0       00622 MOVLW  A0
014C 00A3       00623 MOVWF  23
014D 2004       00624 CALL   004
                00625 ....................             PORTB = offset + 0; 
014E 0821       00626 MOVF   21,W
014F 0086       00627 MOVWF  06
                00628 ....................             delay(RETARDO_SHORT); 
0150 300F       00629 MOVLW  0F
0151 00A4       00630 MOVWF  24
0152 30A0       00631 MOVLW  A0
0153 00A3       00632 MOVWF  23
0154 2004       00633 CALL   004
                00634 ....................             PORTB = offset + 5; 
0155 3005       00635 MOVLW  05
0156 0721       00636 ADDWF  21,W
0157 0086       00637 MOVWF  06
                00638 ....................             delay(RETARDO_SHORT); 
0158 300F       00639 MOVLW  0F
0159 00A4       00640 MOVWF  24
015A 30A0       00641 MOVLW  A0
015B 00A3       00642 MOVWF  23
015C 2004       00643 CALL   004
                00644 ....................             PORTB = offset + 0; 
015D 0821       00645 MOVF   21,W
015E 0086       00646 MOVWF  06
                00647 ....................             delay(RETARDO_SHORT); 
015F 300F       00648 MOVLW  0F
0160 00A4       00649 MOVWF  24
0161 30A0       00650 MOVLW  A0
0162 00A3       00651 MOVWF  23
0163 2004       00652 CALL   004
                00653 ....................             if( !(input(PIN_A0) == 0 || input(PIN_A2) == 0)){ 
0164 1683       00654 BSF    03.5
0165 1405       00655 BSF    05.0
0166 1283       00656 BCF    03.5
0167 1C05       00657 BTFSS  05.0
0168 2971       00658 GOTO   171
0169 1683       00659 BSF    03.5
016A 1505       00660 BSF    05.2
016B 1283       00661 BCF    03.5
016C 1D05       00662 BTFSS  05.2
016D 2971       00663 GOTO   171
                00664 ....................                 return 1; 
016E 3001       00665 MOVLW  01
016F 00F8       00666 MOVWF  78
0170 2974       00667 GOTO   174
                00668 ....................             } 
                00669 ....................         } 
0171 0AA2       00670 INCF   22,F
0172 28FD       00671 GOTO   0FD
                00672 ....................     } 
0173 2855       00673 GOTO   055
                00674 .................... } 
0174 0008       00675 RETURN
                00676 ....................  
                00677 .................... void delay(long time){ 
                00678 ....................     long i; 
                00679 ....................     for(i = 0; i < time; i++); 
0004 01A6       00680 CLRF   26
0005 01A5       00681 CLRF   25
0006 0826       00682 MOVF   26,W
0007 0224       00683 SUBWF  24,W
0008 1C03       00684 BTFSS  03.0
0009 2814       00685 GOTO   014
000A 1D03       00686 BTFSS  03.2
000B 2810       00687 GOTO   010
000C 0823       00688 MOVF   23,W
000D 0225       00689 SUBWF  25,W
000E 1803       00690 BTFSC  03.0
000F 2814       00691 GOTO   014
0010 0AA5       00692 INCF   25,F
0011 1903       00693 BTFSC  03.2
0012 0AA6       00694 INCF   26,F
0013 2806       00695 GOTO   006
                00696 ....................     for(i = 0; i < time; i++); 
0014 01A6       00697 CLRF   26
0015 01A5       00698 CLRF   25
0016 0826       00699 MOVF   26,W
0017 0224       00700 SUBWF  24,W
0018 1C03       00701 BTFSS  03.0
0019 2824       00702 GOTO   024
001A 1D03       00703 BTFSS  03.2
001B 2820       00704 GOTO   020
001C 0823       00705 MOVF   23,W
001D 0225       00706 SUBWF  25,W
001E 1803       00707 BTFSC  03.0
001F 2824       00708 GOTO   024
0020 0AA5       00709 INCF   25,F
0021 1903       00710 BTFSC  03.2
0022 0AA6       00711 INCF   26,F
0023 2816       00712 GOTO   016
                00713 ....................     for(i = 0; i < time; i++); 
0024 01A6       00714 CLRF   26
0025 01A5       00715 CLRF   25
0026 0826       00716 MOVF   26,W
0027 0224       00717 SUBWF  24,W
0028 1C03       00718 BTFSS  03.0
0029 2834       00719 GOTO   034
002A 1D03       00720 BTFSS  03.2
002B 2830       00721 GOTO   030
002C 0823       00722 MOVF   23,W
002D 0225       00723 SUBWF  25,W
002E 1803       00724 BTFSC  03.0
002F 2834       00725 GOTO   034
0030 0AA5       00726 INCF   25,F
0031 1903       00727 BTFSC  03.2
0032 0AA6       00728 INCF   26,F
0033 2826       00729 GOTO   026
                00730 ....................     for(i = 0; i < time; i++); 
0034 01A6       00731 CLRF   26
0035 01A5       00732 CLRF   25
0036 0826       00733 MOVF   26,W
0037 0224       00734 SUBWF  24,W
0038 1C03       00735 BTFSS  03.0
0039 2844       00736 GOTO   044
003A 1D03       00737 BTFSS  03.2
003B 2840       00738 GOTO   040
003C 0823       00739 MOVF   23,W
003D 0225       00740 SUBWF  25,W
003E 1803       00741 BTFSC  03.0
003F 2844       00742 GOTO   044
0040 0AA5       00743 INCF   25,F
0041 1903       00744 BTFSC  03.2
0042 0AA6       00745 INCF   26,F
0043 2836       00746 GOTO   036
                00747 ....................     for(i = 0; i < time; i++); 
0044 01A6       00748 CLRF   26
0045 01A5       00749 CLRF   25
0046 0826       00750 MOVF   26,W
0047 0224       00751 SUBWF  24,W
0048 1C03       00752 BTFSS  03.0
0049 2854       00753 GOTO   054
004A 1D03       00754 BTFSS  03.2
004B 2850       00755 GOTO   050
004C 0823       00756 MOVF   23,W
004D 0225       00757 SUBWF  25,W
004E 1803       00758 BTFSC  03.0
004F 2854       00759 GOTO   054
0050 0AA5       00760 INCF   25,F
0051 1903       00761 BTFSC  03.2
0052 0AA6       00762 INCF   26,F
0053 2846       00763 GOTO   046
                00764 .................... } 
0054 0008       0765 RETURN

Configuration Fuses:
   Word  1: 3F41   XT NOWDT PUT NOPROTECT BROWNOUT NOMCLR NOLVP NOCPD

SYMBOL TABLE
  LABEL                             VALUE

PORTB                             00000006
CCP_1                             00000015
CCP_1_LOW                         00000015
CCP_1_HIGH                        00000016
C1OUT                             0000001F
C2OUT                             0000001F
luces.offset                      00000021
luces.j                           00000022
delay.time                        00000023
delay.i                           00000025
_RETURN_                          00000078
Allocation:                       0000EEEF
main                              00000175
luces                             00000055
delay                             00000004
Memory space:                     0000EEEF
Memory space:                     0000EEEF

MEMORY USAGE
